:04000000D5EF07F041
:100F00000000C3EC07F0600E8C6E030E026EE80E5C
:100F1000016EA7EC07F0200E8C6E030E026EE80E39
:100F2000016EA7EC07F0600E8C6E030E026EE80EE9
:100F3000016EA7EC07F0400E8C6E030E026EE80EF9
:100F4000016EA7EC07F083EF07F000EF00F0000E52
:100F5000056E000E046EB7EF07F00B0E036E620E07
:100F6000E82EFED7032EFCD700D0044A052A0150F4
:100F7000045C02500558D8A0C0EF07F0C2EF07F09C
:100F8000ADEF07F012000F01826B010E0F01876FAA
:100F9000600E0F010C6F0E01600ED36F0E01060E76
:100FA000D96F0E01400ED76F1200000181EF07F0DC
:020000040030CA
:0C000000FCFFFFFF9FFFFFFFFFFFFFFF63
:00000001FF
