:0400000023EF00F0FA
:100008000E01C5BB08D00E01C6B10AD00E01C8BB8F
:1000180081EC07F010000F015B810E01C59B1000F9
:100028000E01C69110000F01828A12000F01829AF8
:1000380012000F01828C12000F01829C1200DEEF69
:0200480014F0B2
:100F00000000000E4F6E000E4E6EA0EF07F00E01B7
:100F1000C8AB8DEF07F08FEF07F0A0EF07F0A5EC5F
:100F200015F05650336E346A4E50020DF350380FA0
:100F3000D96EDA6A33C0DEFF34C0DDFF4E4A4F2A75
:100F40004FBEACEF07F04F5009E1060E4E5CD8A043
:100F5000ACEF07F0AEEF07F087EF07F0000E4F6E33
:100F6000000E4E6E40504110D8A4B9EF07F0BBEF11
:100F700007F0C4EF07F042504310D8B4C2EF07F0B7
:100F8000C4EF07F065EF0BF04050346E336A425007
:100F90003324156E43503420166EDDEC11F015C06D
:100FA00036F016C037F0F1EF07F00E01C8ABDBEFFB
:100FB00007F0DDEF07F0F1EF07F0A5EC15F0565064
:100FC000336E346AD8904E34D96E4F34DA6E365060
:100FD000D9263750DA2233C0DEFF34C0DDFF4E4A57
:100FE0004F2A4050346E336A4250332643503422E5
:100FF00033504E5C4F50800A356E3450800A35585D
:10100000D8A005EF08F007EF08F0D5EF07F03C0493
:101010003D10D8A40EEF08F010EF08F05FEF08F0D5
:10102000020E3E183F10D8A418EF08F01AEF08F08F
:101030005FEF08F038503910D8A421EF08F023EF03
:1010400008F05FEF08F03A503B10D8A42AEF08F000
:101050002CEF08F05FEF08F040504110D8A433EFB8
:1010600008F035EF08F05FEF08F0020E4218431069
:10107000D8A43DEF08F03FEF08F05FEF08F036C06E
:10108000D9FF37C0DAFFDE04DE10D8A44AEF08F03B
:101090004CEF08F05FEF08F020EE02F03650D92652
:1010A0003750DA22DE50DE10D8A459EF08F05BEF9B
:1010B00008F05FEF08F039EC13F065EF0BF03C043B
:1010C0003D10D8A466EF08F068EF08F0B9EF08F01B
:1010D000020E3E183F10D8A470EF08F072EF08F02F
:1010E000B9EF08F038503910D8A479EF08F07BEF49
:1010F00008F0B9EF08F03A043B10D8A482EF08F0EA
:1011000084EF08F0B9EF08F040504110D8A48BEFFD
:1011100008F08DEF08F0B9EF08F0020E4218431006
:10112000D8A495EF08F097EF08F0B9EF08F036C0B3
:10113000D9FF37C0DAFF030EDE18DE10D8A4A3EF04
:1011400008F0A5EF08F0B9EF08F020EE02F03650F5
:10115000D9263750DA22DE50DE10D8A4B2EF08F0DC
:10116000B4EF08F0B9EF08F0010E66EC0BF065EF94
:101170000BF03C043D10D8A4C0EF08F0C2EF08F01B
:1011800014EF09F0020E3E183F10D8A4CAEF08F081
:10119000CCEF08F014EF09F038503910D8A4D3EF91
:1011A00008F0D5EF08F014EF09F0020E3A183B10E2
:1011B000D8A4DDEF08F0DFEF08F014EF09F040509D
:1011C0004110D8A4E6EF08F0E8EF08F014EF09F0BA
:1011D000020E42184310D8A4F0EF08F0F2EF08F026
:1011E00014EF09F036C0D9FF37C0DAFF030EDE185E
:1011F000DE10D8A4FEEF08F000EF09F014EF09F0BC
:1012000020EE02F03650D9263750DA22DE50DE10BA
:10121000D8A40DEF09F00FEF09F014EF09F0020E5A
:1012200066EC0BF065EF0BF03C043D10D8A41BEF0F
:1012300009F01DEF09F06FEF09F0020E3E183F10A4
:10124000D8A425EF09F027EF09F06FEF09F0385027
:101250003910D8A42EEF09F030EF09F06FEF09F044
:10126000030E3A183B10D8A438EF09F03AEF09F012
:101270006FEF09F040504110D8A441EF09F043EF5F
:1012800009F06FEF09F0020E42184310D8A44BEF9B
:1012900009F04DEF09F06FEF09F036C0D9FF37C004
:1012A000DAFF030EDE18DE10D8A459EF09F05BEF69
:1012B00009F06FEF09F020EE02F03650D9263750D2
:1012C000DA22DE50DE10D8A468EF09F06AEF09F0E8
:1012D0006FEF09F0030E66EC0BF065EF0BF0385082
:1012E0003910D8A476EF09F078EF09F0CAEF09F0C9
:1012F0003BBE83EF09F03B5008E13A04D8A083EFEE
:1013000009F085EF09F0CAEF09F03BBE93EF09F051
:101310003B5007E1040E3A5CD8B091EF09F093EF2F
:1013200009F0CAEF09F0030E3C183D10D8A49BEF5A
:1013300009F09DEF09F0CAEF09F03E043F10D8A470
:10134000A4EF09F0A6EF09F0CAEF09F040504110F0
:10135000D8A4ADEF09F0AFEF09F0CAEF09F04204ED
:101360004310D8A4B6EF09F0B8EF09F0CAEF09F0BE
:1013700036C0D9FF37C0DAFFDE50DE10D8A4C3EF85
:1013800009F0C5EF09F0CAEF09F03A5046EC14F045
:1013900065EF0BF038503910D8A4D1EF09F0D3EF36
:1013A00009F02DEF0AF0020E3A183B10D8A4DBEF3B
:1013B00009F0DDEF09F02DEF0AF0030E3C183D10A7
:1013C000D8A4E5EF09F0E7EF09F02DEF0AF0020EDF
:1013D0003E183F10D8A4EFEF09F0F1EF09F02DEF20
:1013E0000AF040504110D8A4F8EF09F0FAEF09F0E4
:1013F0002DEF0AF0020E42184310D8A402EF0AF0B3
:1014000004EF0AF02DEF0AF036C0D9FF37C0DAFF3B
:10141000DE50DE10D8A40FEF0AF011EF0AF02DEF26
:101420000AF020EE02F03650D9263750DA22DE04D8
:10143000DE10D8A41EEF0AF020EF0AF02DEF0AF01C
:10144000010E83EC15F0000E83EC15F0000E83EC1A
:1014500015F017EC00F05FEF0BF038503910D8A4FE
:1014600034EF0AF036EF0AF090EF0AF0020E3A1865
:101470003B10D8A43EEF0AF040EF0AF090EF0AF0DC
:10148000030E3C183D10D8A448EF0AF04AEF0AF0CA
:1014900090EF0AF0020E3E183F10D8A452EF0AF067
:1014A00054EF0AF090EF0AF040504110D8A45BEFDF
:1014B0000AF05DEF0AF090EF0AF0020E42184310B6
:1014C000D8A465EF0AF067EF0AF090EF0AF036C093
:1014D000D9FF37C0DAFFDE50DE10D8A472EF0AF071
:1014E00074EF0AF090EF0AF020EE02F03650D926A1
:1014F0003750DA22DE50DE10D8A481EF0AF083EFF5
:101500000AF090EF0AF0010E83EC15F0000E83EC68
:1015100015F0000E83EC15F01AEC00F05FEF0BF005
:1015200038503910D8A497EF0AF099EF0AF0F3EF8A
:101530000AF0030E3A183B10D8A4A1EF0AF0A3EF6B
:101540000AF0F3EF0AF0030E3C183D10D8A4ABEFFD
:101550000AF0ADEF0AF0F3EF0AF0020E3E183F106A
:10156000D8A4B5EF0AF0B7EF0AF0F3EF0AF0405055
:101570004110D8A4BEEF0AF0C0EF0AF0F3EF0AF072
:10158000020E42184310D8A4C8EF0AF0CAEF0AF0BE
:10159000F3EF0AF036C0D9FF37C0DAFFDE50DE10B5
:1015A000D8A4D5EF0AF0D7EF0AF0F3EF0AF020EE57
:1015B00002F03650D9263750DA22DE04DE10D8A4E5
:1015C000E4EF0AF0E6EF0AF0F3EF0AF0010E83EC25
:1015D00015F0000E83EC15F0000E83EC15F01DECF9
:1015E00000F05FEF0BF038503910D8A4FAEF0AF092
:1015F000FCEF0AF056EF0BF0030E3A183B10D8A49C
:1016000004EF0BF006EF0BF056EF0BF0030E3C1857
:101610003D10D8A40EEF0BF010EF0BF056EF0BF0CF
:10162000020E3E183F10D8A418EF0BF01AEF0BF083
:1016300056EF0BF040504110D8A421EF0BF023EFF0
:101640000BF056EF0BF0020E42184310D8A42BEF0C
:101650000BF02DEF0BF056EF0BF036C0D9FF37C073
:10166000DAFFDE50DE10D8A438EF0BF03AEF0BF0C3
:1016700056EF0BF020EE02F03650D9263750DA2222
:10168000DE50DE10D8A447EF0BF049EF0BF056EF19
:101690000BF0010E83EC15F0000E83EC15F0000E3C
:1016A00083EC15F020EC00F05FEF0BF0000E83EC04
:1016B00015F0000E83EC15F0000E83EC15F036C02B
:1016C00001F037C002F08CEC12F01200026E02043E
:1016D000D8A46DEF0BF06FEF0BF062EF0CF0010E82
:1016E00083EC15F0000E83EC15F0240E83EC15F05E
:1016F000000E046E000E036E4C0E0324D96E010E14
:101700000420DA6EDF5083EC15F0034A042A04BE8D
:1017100093EF0BF0045009E1060E035CD8A093EFA1
:101720000BF095EF0BF07CEF0BF0000E066E000E49
:10173000056E520E0524D96E010E0620DA6EDF50BA
:1017400083EC15F0054A062A06BEB0EF0BF00650F2
:1017500009E1030E055CD8A0B0EF0BF0B2EF0BF07F
:1017600099EF0BF0000E086E000E076E550E072461
:10177000D96E010E0820DA6EDF5083EC15F0074AAF
:10178000082A08BECDEF0BF0085009E10C0E075CEB
:10179000D8A0CDEF0BF0CFEF0BF0B6EF0BF0000EB3
:1017A0000A6E000E096E610E0924D96E010E0A2020
:1017B000DA6EDF5083EC15F0094A0A2A0ABEEAEF16
:1017C0000BF00A5009E1030E095CD8A0EAEF0BF018
:1017D000ECEF0BF0D3EF0BF0000E0C6E000E0B6E67
:1017E000640E0B24D96E010E0C20DA6EDF5083ECF0
:1017F00015F00B4A0C2A0CBE07EF0CF00C5009E157
:10180000030E0B5CD8A007EF0CF009EF0CF0F0EF23
:101810000BF0000E0E6E000E0D6E670E0D24D96ECD
:10182000010E0E20DA6EDF5083EC15F00D4A0E2A01
:101830000EBE24EF0CF00E5009E1030E0D5CD8A093
:1018400024EF0CF026EF0CF00DEF0CF0000E106EF4
:10185000000E0F6E6A0E0F24D96E010E1020DA6E84
:10186000DF5083EC15F00F4A102A10BE41EF0CF048
:10187000105009E1030E0F5CD8A041EF0CF043EFCC
:101880000CF02AEF0CF0000E126E000E116E6D0EB1
:101890001124D96E010E1220DA6EDF5083EC15F0A0
:1018A000114A122A12BE5EEF0CF0125009E1030E2B
:1018B000115CD8A05EEF0CF060EF0CF047EF0CF07D
:1018C00096EF0EF0020E0218D8A469EF0CF06BEF41
:1018D0000CF07CEF0DF0010E83EC15F0000E83ECA4
:1018E00015F0240E83EC15F0000E146E000E136E2E
:1018F00014BE84EF0CF0145009E1060E135CD8A05E
:1019000084EF0CF086EF0CF088EF0CF095EF0CF004
:10191000280E1324D96E010E1420DA6EDF5083ECEA
:1019200015F0134A142A78EF0CF0000E166E000E14
:10193000156E16BEA5EF0CF0165009E1030E155CEE
:10194000D8A0A5EF0CF0A7EF0CF0A9EF0CF0B6EFC4
:101950000CF02E0E1524D96E010E1620DA6EDF5013
:1019600083EC15F0154A162A99EF0CF0000E186E4C
:10197000000E176E18BEC6EF0CF0185009E10C0EE1
:10198000175CD8A0C6EF0CF0C8EF0CF0CAEF0CF053
:10199000D7EF0CF0310E1724D96E010E1820DA6E35
:1019A000DF5083EC15F0174A182ABAEF0CF0000E3E
:1019B0001A6E000E196E1ABEE7EF0CF01A5009E10C
:1019C000030E195CD8A0E7EF0CF0E9EF0CF0EBEF99
:1019D0000CF0F8EF0CF03D0E1924D96E010E1A2010
:1019E000DA6EDF5083EC15F0194A1A2ADBEF0CF09F
:1019F000000E1C6E000E1B6E1CBE08EF0DF01C507E
:101A000009E1030E1B5CD8A008EF0DF00AEF0DF002
:101A10000CEF0DF019EF0DF0400E1B24D96E010EE6
:101A20001C20DA6EDF5083EC15F01B4A1C2AFCEFF9
:101A30000CF0000E1E6E000E1D6E1EBE29EF0DF086
:101A40001E5009E1030E1D5CD8A029EF0DF02BEF0D
:101A50000DF02DEF0DF03AEF0DF0430E1D24D96E71
:101A6000010E1E20DA6EDF5083EC15F01D4A1E2A8F
:101A70001DEF0DF0000E206E000E1F6E20BE4AEF0F
:101A80000DF0205009E1030E1F5CD8A04AEF0DF0C5
:101A90004CEF0DF04EEF0DF05BEF0DF0460E1F24F6
:101AA000D96E010E2020DA6EDF5083EC15F01F4A4C
:101AB000202A3EEF0DF0000E226E000E216E22BE97
:101AC0006BEF0DF0225009E1030E215CD8A06BEF03
:101AD0000DF06DEF0DF06FEF0DF096EF0EF0490E7B
:101AE0002124D96E010E2220DA6EDF5083EC15F02E
:101AF000214A222A5FEF0DF0030E0218D8A483EFCB
:101B00000DF085EF0DF096EF0EF0010E83EC15F061
:101B1000000E83EC15F0240E83EC15F0000E246EFD
:101B2000000E236E24BE9EEF0DF0245009E1060E38
:101B3000235CD8A09EEF0DF0A0EF0DF0A2EF0DF00A
:101B4000AFEF0DF0040E2324D96E010E2420DA6EBF
:101B5000DF5083EC15F0234A242A92EF0DF0000E9B
:101B6000266E000E256E26BEBFEF0DF0265009E151
:101B7000030E255CD8A0BFEF0DF0C1EF0DF0C3EF51
:101B80000DF0D0EF0DF00A0E2524D96E010E26209F
:101B9000DA6EDF5083EC15F0254A262AB3EF0DF0FC
:101BA000000E286E000E276E28BEE0EF0DF02850C4
:101BB00009E10C0E275CD8A0E0EF0DF0E2EF0DF08C
:101BC000E4EF0DF0F1EF0DF00D0E2724D96E010EAC
:101BD0002820DA6EDF5083EC15F0274A282AD4EF4C
:101BE0000DF0000E2A6E000E296E2ABE01EF0EF0D7
:101BF0002A5009E1030E295CD8A001EF0EF003EF93
:101C00000EF005EF0EF012EF0EF0190E2924D96E2A
:101C1000010E2A20DA6EDF5083EC15F0294A2A2AB9
:101C2000F5EF0DF0000E2C6E000E2B6E2CBE22EF89
:101C30000EF02C5009E1030E2B5CD8A022EF0EF021
:101C400024EF0EF026EF0EF033EF0EF01C0E2B24D7
:101C5000D96E010E2C20DA6EDF5083EC15F02B4A82
:101C60002C2A16EF0EF0000E2E6E000E2D6E2EBEDC
:101C700043EF0EF02E5009E1030E2D5CD8A043EF88
:101C80000EF045EF0EF047EF0EF054EF0EF01F0E82
:101C90002D24D96E010E2E20DA6EDF5083EC15F064
:101CA0002D4A2E2A37EF0EF0000E306E000E2F6EEA
:101CB00030BE64EF0EF0305009E1030E2F5CD8A067
:101CC00064EF0EF066EF0EF068EF0EF075EF0EF0B9
:101CD000220E2F24D96E010E3020DA6EDF5083ECF5
:101CE00015F02F4A302A58EF0EF0000E326E000E1B
:101CF000316E32BE85EF0EF0325009E1030E315CD9
:101D0000D8A085EF0EF087EF0EF089EF0EF096EF7A
:101D10000EF0250E3124D96E010E3220DA6EDF501E
:101D200083EC15F0314A322A79EF0EF0120021EEE1
:101D3000C2F012EE24F0050EDBCFE3FFE806FCE272
:101D40004C0E00018D6F010E8E6F240E8F6F020EF0
:101D5000906F000E926F060E916F1DEC15F08AC009
:101D600036F28BC037F28CC038F2520E00018D6F04
:101D7000010E8E6F360E8F6F020E906F000E926FF7
:101D8000030E916F1DEC15F021EE9EF012EE00F0A7
:101D90000B0EDBCFE3FFE806FCE2550E00018D6F72
:101DA000010E8E6F000E8F6F020E906F000E926FFD
:101DB0000C0E916F1DEC15F087C039F288C03AF215
:101DC00089C03BF2610E00018D6F010E8E6F390EDE
:101DD0008F6F020E906F000E926F030E916F1DECCD
:101DE00015F084C03CF285C03DF286C03EF2640E20
:101DF00000018D6F010E8E6F3C0E8F6F020E906F83
:101E0000000E926F030E916F1DEC15F081C03FF232
:101E100082C040F283C041F2670E00018D6F010E57
:101E20008E6F3F0E8F6F020E906F000E926F030E3B
:101E3000916F1DEC15F07EC042F27FC043F280C06E
:101E400044F26A0E00018D6F010E8E6F420E8F6F8D
:101E5000020E906F000E926F030E916F1DEC15F045
:101E60007BC045F27CC046F27DC047F26D0E00019A
:101E70008D6F010E8E6F450E8F6F020E906F000EEC
:101E8000926F030E916F1DEC15F021EEBCF012EE77
:101E90002AF0050EDBCFE3FFE806FCE2280E000186
:101EA0008D6F010E8E6F2A0E8F6F020E906F000ED7
:101EB000926F060E916F1DEC15F078C048F279C054
:101EC00049F27AC04AF22E0E00018D6F010E8E6F1C
:101ED000480E8F6F020E906F000E926F030E916F7F
:101EE0001DEC15F021EE92F012EE0CF00B0EDBCF94
:101EF000E3FFE806FCE2310E00018D6F010E8E6FEC
:101F00000C0E8F6F020E906F000E926F0C0E916F81
:101F10001DEC15F075C04BF276C04CF277C04DF257
:101F20003D0E00018D6F010E8E6F4B0E8F6F020EF6
:101F3000906F000E926F030E916F1DEC15F072C042
:101F40004EF273C04FF274C050F2400E00018D6F1C
:101F5000010E8E6F4E0E8F6F020E906F000E926FFD
:101F6000030E916F1DEC15F06FC051F270C052F26C
:101F700071C053F2430E00018D6F010E8E6F510E32
:101F80008F6F020E906F000E926F030E916F1DEC1B
:101F900015F06CC054F26DC055F26EC056F2460E8C
:101FA00000018D6F010E8E6F540E8F6F020E906FB9
:101FB000000E926F030E916F1DEC15F069C057F281
:101FC0006AC058F26BC059F2490E00018D6F010EC4
:101FD0008E6F570E8F6F020E906F000E926F030E72
:101FE000916F1DEC15F021EEB6F012EE30F0050EFB
:101FF000DBCFE3FFE806FCE2040E00018D6F010E6B
:102000008E6F300E8F6F020E906F000E926F060E65
:10201000916F1DEC15F066C05AF267C05BF268C0A4
:102020005CF20A0E00018D6F010E8E6F5A0E8F6FDB
:10203000020E906F000E926F030E916F1DEC15F063
:1020400021EE86F012EE18F00B0EDBCFE3FFE80670
:10205000FCE20D0E00018D6F010E8E6F180E8F6F5A
:10206000020E906F000E926F0C0E916F1DEC15F02A
:1020700063C05DF264C05EF265C05FF2190E0001DC
:102080008D6F010E8E6F5D0E8F6F020E906F000EC2
:10209000926F030E916F1DEC15F060C060F261C08D
:1020A00061F262C062F21C0E00018D6F010E8E6F34
:1020B000600E8F6F020E906F000E926F030E916F85
:1020C0001DEC15F05DC063F25EC064F25FC065F2A6
:1020D0001F0E00018D6F010E8E6F630E8F6F020E4B
:1020E000906F000E926F030E916F1DEC15F05AC0A9
:1020F00066F25BC067F25CC068F2220E00018D6F71
:10210000010E8E6F660E8F6F020E906F000E926F33
:10211000030E916F1DEC15F057C069F258C06AF2BA
:1021200059C06BF2250E00018D6F010E8E6F690E86
:102130008F6F020E906F000E926F030E916F1DEC69
:1021400015F01200000E136E000E146E000E096ED4
:10215000000E0A6E000E0D6E000E0E6E4C504D10ED
:10216000D8A4B5EF10F0B7EF10F0BDEF10F0000EEF
:10217000016E000E026EDCEF11F04CC011F04DC08C
:1021800012F043EF11F011C0D9FF12C0DAFF015075
:10219000DE1807E10250DE18D8A4D1EF10F0D3EF1B
:1021A00010F000EF11F00D500E10D8B4DAEF10F06F
:1021B000DCEF10F0EEEF10F020EE02F01150D92617
:1021C0001250DA2210EE02F00D50E1260E50E222FB
:1021D000DECFE6FFDDCFE5FFF8EF10F020EE02F0F6
:1021E0001150D9261250DA22DECF4CF0DDCF4DF05F
:1021F000020E1124016E000E1220026EDCEF11F0AF
:1022000011C0D9FF12C0DAFFDE50015CDE50025867
:10221000D8B00DEF11F00FEF11F035EF11F01350B2
:102220001410D8B416EF11F018EF11F02DEF11F0D3
:1022300013C0D9FF14C0DAFF11C0E1FF12C0E2FFE2
:10224000DE50E65CDE50E658D8A029EF11F02BEF07
:1022500011F02DEF11F035EF11F011C013F012C095
:1022600014F00DC009F00EC00AF011C00DF012C03C
:102270000EF020EE02F01150D9261250DA22DECFF5
:1022800011F0DDCF12F011501210D8A44AEF11F066
:102290004CEF11F0C3EF10F013501410D8B453EFFB
:1022A00011F055EF11F0B7EF10F020EE02F01350DF
:1022B000D9261450DA22DECF0FF0DDCF10F013C094
:1022C000D9FF14C0DAFFDECF03F0DDCF04F00150F8
:1022D000035E0250045A045009E1050E035CD8A0C5
:1022E00074EF11F076EF11F0BAEF11F013C0D9FFCF
:1022F00014C0DAFFDECF03F0DDCF04F00150035E3F
:102300000250045AFE0E0324076EFF0E0420086ECE
:1023100013C0D9FF14C0DAFF01C0DEFF02C0DDFF29
:1023200013C0D9FF14C0DAFFDECF03F0DDCF04F015
:1023300003501324056E04501420066E020E05246B
:102340000B6E000E06200C6E0BC0D9FF0CC0DAFF1E
:1023500007C0DEFF08C0DDFF20EE02F00B50D926DB
:102360000C50DA220FC0DEFF10C0DDFF0BC00FF0F3
:102370000CC010F013504C1807E114504D18D8A49D
:10238000C4EF11F0C6EF11F0CCEF11F00FC04CF01C
:1023900010C04DF0D6EF11F020EE02F00950D92612
:1023A0000A50DA220FC0DEFF10C0DDFF020E132438
:1023B000016E000E1420026E120015501610D8A4E3
:1023C000E4EF11F0E6EF11F0E8EF11F0154A162AEC
:1023D000165007E1030E155CD8B0F1EF11F0F3EFE2
:1023E00011F0F9EF11F0000E166E030E156E12EFDC
:1023F00012F0151C176E161C186E185007E1020E0D
:10240000175CD8B006EF12F008EF12F012EF12F0DE
:10241000000E4B6E0C0E4A6E000E156E000E166E00
:102420008BEF12F015C001F016C002F0A2EC10F014
:1024300001C01DF002C01EF01D501E10D8A423EFD5
:1024400012F025EF12F087EF12F04850465C176E3D
:1024500049504758186E1550175C16501858D8B088
:1024600034EF12F036EF12F065EF12F0020E152481
:10247000196E000E16201A6E190E016EF0EC13F094
:1024800001C01FF002C020F01F502010D8A44BEF55
:1024900012F04DEF12F04FEF12F00CEF12F0465029
:1024A0001F1809E147502018D8B459EF12F05BEF1C
:1024B00012F05FEF12F01FC048F020C049F0195031
:1024C0001F24466E1A502020476E48C01DF049C098
:1024D0001EF01DC01BF01EC01CF01BC0D9FF1CC08D
:1024E000DAFF15C0DEFF16C0DDFF020E1B26000E50
:1024F0001C221BC01DF01CC01EF0020E1524176EFE
:10250000000E1620186E17504826185049221DC07C
:1025100015F01EC016F0120001C007F002C008F04E
:1025200001500210D8A497EF12F099EF12F09BEF30
:1025300012F038EF13F0FE0E0724096EFF0E08208C
:102540000A6E4C504D10D8B4A8EF12F0AAEF12F05A
:102550002EEF13F009C0D9FF0AC0DAFFDECF03F077
:10256000DDCF04F003500724056E04500820066EEA
:102570004C50051807E14D500618D8A4C2EF12F0D0
:10258000C4EF12F0EEEF12F020EE02F04C50D9261C
:102590004D50DA2210EE02F00950E1260A50E222F4
:1025A000DECFE6FFDDCFE5FF4CC0D9FF4DC0DAFF3F
:1025B000DECF03F0DDCF04F0020E0326000E04226E
:1025C00009C0D9FF0AC0DAFF0350DE260450DD221D
:1025D00009C04CF00AC04DF038EF13F04CC0D9FFE1
:1025E0004DC0DAFFDECF03F0DDCF04F003504C2402
:1025F000056E04504D20066E020E0526000E0622C2
:102600000950051807E10A500618D8A40AEF13F07C
:102610000CEF13F022EF13F009C0D9FF0AC0DAFF64
:10262000DECF03F0DDCF04F0020E0326000E0422FD
:102630004CC0D9FF4DC0DAFF0350DE260450DD2226
:1026400038EF13F020EE02F00950D9260A50DA22B2
:102650004CC0DEFF4DC0DDFFE8EF12F020EE02F0CF
:102660000950D9260A50DA22DE6ADD6AE8EF12F054
:102670001200010E83EC15F0000E83EC15F0160E1F
:1026800083EC15F0000E036E000E026E700E022435
:10269000D96E010E0320DA6EDF5083EC15F0024A8A
:1026A000032A03BE5DEF13F0035009E1060E025C3E
:1026B000D8A05DEF13F05FEF13F046EF13F0000EBC
:1026C000056E000E046E760E0424D96E010E0520F0
:1026D000DA6EDF5083EC15F0044A052A05BE7AEF66
:1026E00013F0055009E10C0E045CD8A07AEF13F04A
:1026F0007CEF13F063EF13F0000E076E000E066E12
:10270000820E0624D96E010E0720DA6EDF5083ECAC
:1027100015F0064A072A07BE97EF13F0075009E1A4
:10272000040E065CD8A097EF13F099EF13F080EF3A
:1027300013F012000F01826B0F01876B0F010C6BFE
:102740000F01836B0F01886B88820F01146B148358
:102750000F01846B0F01896B898E0F011C6B0E01B9
:10276000090EF66F0E01170EB06F0E01600ED36FDB
:102770000E01080ED96F0E01400ED76F0F01330EF8
:102780009A6E000E9B6E0F01A00E9D6E900E0F01B3
:102790009C6E0F01090E5A6F0F01000E536F0F014F
:1027A0000F0E526F0F01840E5B6F0F01D46A0F0181
:1027B0006E0ED56E0F01D26A0E01C59B0E01C69139
:1027C0000E01C89B0E01BD8B0E01BE810E01C08B98
:1027D0000F01D48E0F015B8F0F01C70EF26F120035
:1027E0000150D96EDA6ADECF05F0DDCF06F0445035
:1027F0004510D8A4FEEF13F000EF14F004EF14F02E
:10280000000E446E0D0E456E065007E1050E055C88
:10281000D8B00DEF14F00FEF14F013EF14F0000E1A
:10282000066E050E056E0550445C076E0650455851
:10283000086E6C0E036E020E046E0350075C0450AB
:102840000858D8A026EF14F028EF14F033EF14F056
:102850004450075C45500858D8A031EF14F033EFCE
:1028600014F03DEF14F0000E4B6E0C0E4A6E000E8D
:10287000016E000E026E45EF14F007C044F008C070
:1028800045F044C001F045C002F01200026E02049F
:10289000D8A44DEF14F04FEF14F06CEF14F0010ECC
:1028A00083EC15F0000E83EC15F0020E83EC15F0AE
:1028B0000F015B810E01C6A160EF14F062EF14F00E
:1028C0005AEF14F00F015F5183EC15F00F015E51C8
:1028D00083EC15F098EF14F0020E0218D8A473EFF1
:1028E00014F075EF14F082EF14F0010E83EC15F084
:1028F000010E83EC15F0000E8CBA010E83EC15F07E
:1029000098EF14F0030E0218D8A489EF14F08BEF9F
:1029100014F098EF14F0010E83EC15F0010E83EC27
:1029200015F0000E8CBC010E83EC15F098EF14F03E
:10293000120021EEC8F010EEA4F0050EDBCFE3FF8D
:10294000E806FCE2700E00018D6F010E8E6FA40E82
:102950008F6F906B000E926F060E916F1DEC15F04D
:1029600021EEAAF010EE98F00B0EDBCFE3FFE806A5
:10297000FCE2760E00018D6F010E8E6F980E8F6F48
:10298000906B000E926F0C0E916F1DEC15F0CEC186
:10299000AAF0CFC1ABF0D0C1ACF0D1C1ADF0820E86
:1029A00000018D6F010E8E6FAA0E8F6F906B000E5F
:1029B000926F040E916F1DEC15F012008C0EF66EE6
:1029C0002A0EF76E000EF86E01EE86F010EE4CF057
:1029D0000900F5CFEEFFE550E150FAE1D80EF66EB2
:1029E0002A0EF76E000EF86E00EE60F010EE2DF07D
:1029F0000900F5CFEEFFE550E150FAE1400EF66E2A
:102A00002B0EF76E000EF86E00EE57F010EE09F088
:102A10000900F5CFEEFFE550E150FAE101EE00F0DC
:102A2000860EEE6AE806FDE100EE38F01F0EEE6A53
:102A3000E806FDE1000196EF15F08FC096F090C01A
:102A400097F08DC094F08EC095F037EF15F096C0DA
:102A5000D9FF97C0DAFFDF50936F964B972B94C046
:102A6000D9FF95C0DAFF93C0DFFF944B952B00018F
:102A70009107D8A09207912906E19229D8A443EFA3
:102A800015F045EF15F027EF15F012000C0A008045
:102A90008084827A7E8080800C0A00808084827AA2
:102AA0007E8080800C0A00808084827A7E80808094
:102AB000040A0000000000000000030403040003F7
:102AC00000010304000300010304000300010304E8
:102AD000000100010D0200030E01050D01000B01B4
:102AE000012A01082901012801000E01050D01003C
:102AF0000B01012A01082901012801000E01050D21
:052B000001000B0100C3
:102B0600016E0E01C8A98AEF15F08CEF15F084EF5F
:102B160015F001C099FFC8A993EF15F095EF15F0D0
:102B26008EEF15F012009AEC13F099EC14F097EC76
:102B36000EF09CEF15F023EF00F02A0108290101A1
:032B460028010063
:062B4A0098CF56F01200C6
:020000040030CA
:0C000000FCFFFFFF9FFFFFFFFFFFFFFF63
:00000001FF
