:0400000009EF00F014
:0E0008000E01C8BBF4EC08F01000D2EF08F0B7
:050F0000002563000064
:100F06002C502D10D8B48AEF07F08CEF07F095EF30
:100F160007F02C502D10D8A493EF07F095EF07F0AB
:100F26009AEF07F02A50BFEC08F0E7EF07F020EE43
:100F36000AF02C50D9262D50DA22DE50DE10D8B415
:100F4600A7EF07F0A9EF07F0C4EF07F020EE0AF0CD
:100F56002C50D9262D50DA2210EE03F02C50E12623
:100F66002D50E222DE50E65CE650800A326EDE50FC
:100F7600800A3258D8B0C2EF07F0C4EF07F0E7EFA7
:100F860007F020EE03F02C50D9262D50DA22DECFC2
:100F96002EF0DDCF2FF02CC0D9FF2DC0DAFFDECF2B
:100FA60030F0DDCF31F02E503024D96E2F50312065
:100FB600DA6E2AC0DFFF20EE03F02C50D9262D5022
:100FC600DA22DE2A000EDD2212003550D96EDA6AE8
:100FD600DFCFF6FF0800F550250AD8A4F5EF07F095
:100FE600F7EF07F031EF08F03550D96EDA6ADF2AED
:100FF600000E226E000E216E21C027F023682468A1
:101006003550D96EDA6ADFCFF6FF0800F550630A6D
:10101600D8A410EF08F012EF08F02BEF08F03550C7
:10102600D96EDA6ADF2A3650D96EDA6ADF50DF2ADD
:10103600DF2AD96EDA6ADF50376E37C02AF02B6A9C
:1010460033C02CF034C02DF083EC07F042EF08F0EB
:101056003550D96EDA6ADF2A42EF08F03550D96E7C
:10106600DA6ADFCFF6FF0800F5502A6E2B6A33C026
:101076002CF034C02DF083EC07F02BEF08F01200B3
:101086000F01826B010E0F01876F010E0F010C6FAE
:101096000F01846B0F01896B898E0F011C6B0E018A
:1010A600090EF66F0E01170EB06F0E01600ED36FAC
:1010B6000E01060ED96F0E01400ED76F0F01330ECB
:1010C6009A6E000E9B6E0F01A00E9D6E900E0F0184
:1010D6009C6E0E01C59B0E01C6910E01C89B0E01AA
:1010E600BD8B0E01BE810E01C08B0F01D48E0F0188
:1010F6005B8F0F01C70EF26F120043EC08F0030E70
:10110600ECEC08F0416E4150426E436A2850D8B468
:101116008FEF08F091EF08F089EF08F02828286E85
:10112600010E3D6E28C03EF03F6ADFEC08F0000E6F
:10113600286E89EF08F009EF00F03AC03CF0AEEFF8
:1011460008F038C033F039C034F03C0E356E3BC081
:1011560036F0E8EC07F03CC0F6FF0800F550000951
:10116600D8A4B8EF08F0BAEF08F0A4EF08F0000E24
:10117600396E000E386E1200296E0E01C8A9C6EF30
:1011860008F0C8EF08F0C0EF08F029C099FFC8A919
:10119600CFEF08F0D1EF08F0CAEF08F0120000EE2A
:1011A60001F0280EEE6AE806FDE1000EF86E0F0E5D
:1011B600F76E000180EF08F03E0E406E000E386EAE
:1011C600000E396E3DC03AF0400E3B6EA0EC08F0C2
:1011D6001200050F036E0001010E2527000B0324E4
:1011E600120098CF28F0000E2A6E000E296E12000B
:020000040030CA
:0C000000FCFFFFFF9FFFFFFFFFFFFFFF63
:00000001FF
